{
  "address": "0x0037C63a50757bBbB1c76181e15C644Cec4584b0",
  "abi": [
    {
      "inputs": [
        {
          "internalType": "address",
          "name": "proofOfHumanity_",
          "type": "address"
        },
        {
          "internalType": "address[]",
          "name": "_initialVerifiers",
          "type": "address[]"
        },
        {
          "internalType": "address",
          "name": "_admin",
          "type": "address"
        },
        {
          "internalType": "string",
          "name": "_tokenURI",
          "type": "string"
        }
      ],
      "stateMutability": "nonpayable",
      "type": "constructor"
    },
    {
      "anonymous": false,
      "inputs": [
        {
          "indexed": false,
          "internalType": "address",
          "name": "submitter",
          "type": "address"
        },
        {
          "indexed": false,
          "internalType": "uint256",
          "name": "index",
          "type": "uint256"
        },
        {
          "indexed": false,
          "internalType": "uint256",
          "name": "date",
          "type": "uint256"
        }
      ],
      "name": "AddSubmission",
      "type": "event"
    },
    {
      "anonymous": false,
      "inputs": [
        {
          "indexed": true,
          "internalType": "address",
          "name": "previousOwner",
          "type": "address"
        },
        {
          "indexed": true,
          "internalType": "address",
          "name": "newOwner",
          "type": "address"
        }
      ],
      "name": "OwnershipTransferred",
      "type": "event"
    },
    {
      "anonymous": false,
      "inputs": [
        {
          "indexed": false,
          "internalType": "address",
          "name": "submitter",
          "type": "address"
        },
        {
          "indexed": false,
          "internalType": "uint256",
          "name": "index",
          "type": "uint256"
        },
        {
          "indexed": false,
          "internalType": "uint256",
          "name": "date",
          "type": "uint256"
        },
        {
          "indexed": false,
          "internalType": "address",
          "name": "verifier",
          "type": "address"
        }
      ],
      "name": "Rejected",
      "type": "event"
    },
    {
      "anonymous": false,
      "inputs": [
        {
          "indexed": true,
          "internalType": "bytes32",
          "name": "role",
          "type": "bytes32"
        },
        {
          "indexed": true,
          "internalType": "bytes32",
          "name": "previousAdminRole",
          "type": "bytes32"
        },
        {
          "indexed": true,
          "internalType": "bytes32",
          "name": "newAdminRole",
          "type": "bytes32"
        }
      ],
      "name": "RoleAdminChanged",
      "type": "event"
    },
    {
      "anonymous": false,
      "inputs": [
        {
          "indexed": true,
          "internalType": "bytes32",
          "name": "role",
          "type": "bytes32"
        },
        {
          "indexed": true,
          "internalType": "address",
          "name": "account",
          "type": "address"
        },
        {
          "indexed": true,
          "internalType": "address",
          "name": "sender",
          "type": "address"
        }
      ],
      "name": "RoleGranted",
      "type": "event"
    },
    {
      "anonymous": false,
      "inputs": [
        {
          "indexed": true,
          "internalType": "bytes32",
          "name": "role",
          "type": "bytes32"
        },
        {
          "indexed": true,
          "internalType": "address",
          "name": "account",
          "type": "address"
        },
        {
          "indexed": true,
          "internalType": "address",
          "name": "sender",
          "type": "address"
        }
      ],
      "name": "RoleRevoked",
      "type": "event"
    },
    {
      "anonymous": false,
      "inputs": [
        {
          "indexed": false,
          "internalType": "address",
          "name": "submitter",
          "type": "address"
        },
        {
          "indexed": false,
          "internalType": "uint256",
          "name": "index",
          "type": "uint256"
        },
        {
          "indexed": false,
          "internalType": "uint256",
          "name": "date",
          "type": "uint256"
        },
        {
          "indexed": false,
          "internalType": "address",
          "name": "verifier",
          "type": "address"
        }
      ],
      "name": "Verified",
      "type": "event"
    },
    {
      "inputs": [],
      "name": "DEFAULT_ADMIN_ROLE",
      "outputs": [
        {
          "internalType": "bytes32",
          "name": "",
          "type": "bytes32"
        }
      ],
      "stateMutability": "view",
      "type": "function"
    },
    {
      "inputs": [],
      "name": "VERIFIER",
      "outputs": [
        {
          "internalType": "bytes32",
          "name": "",
          "type": "bytes32"
        }
      ],
      "stateMutability": "view",
      "type": "function"
    },
    {
      "inputs": [],
      "name": "VERIFIERS_ADMIN",
      "outputs": [
        {
          "internalType": "bytes32",
          "name": "",
          "type": "bytes32"
        }
      ],
      "stateMutability": "view",
      "type": "function"
    },
    {
      "inputs": [],
      "name": "activeVerifiers",
      "outputs": [
        {
          "internalType": "address[]",
          "name": "",
          "type": "address[]"
        }
      ],
      "stateMutability": "view",
      "type": "function"
    },
    {
      "inputs": [],
      "name": "activeVerifiersAmount",
      "outputs": [
        {
          "internalType": "uint256",
          "name": "amount",
          "type": "uint256"
        }
      ],
      "stateMutability": "view",
      "type": "function"
    },
    {
      "inputs": [
        {
          "internalType": "address[]",
          "name": "verifiers",
          "type": "address[]"
        },
        {
          "internalType": "string[]",
          "name": "cids",
          "type": "string[]"
        }
      ],
      "name": "addSubmission",
      "outputs": [],
      "stateMutability": "nonpayable",
      "type": "function"
    },
    {
      "inputs": [
        {
          "internalType": "address",
          "name": "newVerifier",
          "type": "address"
        }
      ],
      "name": "addVerifier",
      "outputs": [],
      "stateMutability": "nonpayable",
      "type": "function"
    },
    {
      "inputs": [
        {
          "internalType": "address",
          "name": "submitter",
          "type": "address"
        }
      ],
      "name": "getCID",
      "outputs": [
        {
          "internalType": "string",
          "name": "",
          "type": "string"
        }
      ],
      "stateMutability": "view",
      "type": "function"
    },
    {
      "inputs": [
        {
          "internalType": "bytes32",
          "name": "role",
          "type": "bytes32"
        }
      ],
      "name": "getRoleAdmin",
      "outputs": [
        {
          "internalType": "bytes32",
          "name": "",
          "type": "bytes32"
        }
      ],
      "stateMutability": "view",
      "type": "function"
    },
    {
      "inputs": [
        {
          "internalType": "bytes32",
          "name": "role",
          "type": "bytes32"
        },
        {
          "internalType": "address",
          "name": "account",
          "type": "address"
        }
      ],
      "name": "grantRole",
      "outputs": [],
      "stateMutability": "nonpayable",
      "type": "function"
    },
    {
      "inputs": [],
      "name": "groupManager",
      "outputs": [
        {
          "internalType": "address",
          "name": "",
          "type": "address"
        }
      ],
      "stateMutability": "view",
      "type": "function"
    },
    {
      "inputs": [
        {
          "internalType": "bytes32",
          "name": "role",
          "type": "bytes32"
        },
        {
          "internalType": "address",
          "name": "account",
          "type": "address"
        }
      ],
      "name": "hasRole",
      "outputs": [
        {
          "internalType": "bool",
          "name": "",
          "type": "bool"
        }
      ],
      "stateMutability": "view",
      "type": "function"
    },
    {
      "inputs": [],
      "name": "owner",
      "outputs": [
        {
          "internalType": "address",
          "name": "",
          "type": "address"
        }
      ],
      "stateMutability": "view",
      "type": "function"
    },
    {
      "inputs": [],
      "name": "proofOfHumanity",
      "outputs": [
        {
          "internalType": "address",
          "name": "",
          "type": "address"
        }
      ],
      "stateMutability": "view",
      "type": "function"
    },
    {
      "inputs": [
        {
          "internalType": "address",
          "name": "submitter",
          "type": "address"
        }
      ],
      "name": "reject",
      "outputs": [],
      "stateMutability": "nonpayable",
      "type": "function"
    },
    {
      "inputs": [],
      "name": "renounceOwnership",
      "outputs": [],
      "stateMutability": "nonpayable",
      "type": "function"
    },
    {
      "inputs": [
        {
          "internalType": "bytes32",
          "name": "role",
          "type": "bytes32"
        },
        {
          "internalType": "address",
          "name": "account",
          "type": "address"
        }
      ],
      "name": "renounceRole",
      "outputs": [],
      "stateMutability": "nonpayable",
      "type": "function"
    },
    {
      "inputs": [
        {
          "internalType": "bytes32",
          "name": "role",
          "type": "bytes32"
        },
        {
          "internalType": "address",
          "name": "account",
          "type": "address"
        }
      ],
      "name": "revokeRole",
      "outputs": [],
      "stateMutability": "nonpayable",
      "type": "function"
    },
    {
      "inputs": [
        {
          "internalType": "bytes4",
          "name": "interfaceId",
          "type": "bytes4"
        }
      ],
      "name": "supportsInterface",
      "outputs": [
        {
          "internalType": "bool",
          "name": "",
          "type": "bool"
        }
      ],
      "stateMutability": "view",
      "type": "function"
    },
    {
      "inputs": [
        {
          "internalType": "address",
          "name": "newOwner",
          "type": "address"
        }
      ],
      "name": "transferOwnership",
      "outputs": [],
      "stateMutability": "nonpayable",
      "type": "function"
    },
    {
      "inputs": [
        {
          "internalType": "address",
          "name": "submitter",
          "type": "address"
        },
        {
          "internalType": "string",
          "name": "proof",
          "type": "string"
        }
      ],
      "name": "verify",
      "outputs": [],
      "stateMutability": "nonpayable",
      "type": "function"
    }
  ],
  "transactionHash": "0xf9fbb1174ba3ecb7abab6c41f5f605208f5aba587136b13214a74db8c42b9e9e",
  "args": [
    "0x4023395C3Bb30cb6288d4eD722369C2A510d377A",
    [
      "0x2e1FC47eabf36FB5Ef3BF5d86fb9aCee50CdC993",
      "0xec0dC8005b21e37B1cBBE200A96BCC29bA29606C",
      "0xD2Db71E27cbA2DBC8b7F8C1583a689Edb7c067F3"
    ],
    "0x2e1FC47eabf36FB5Ef3BF5d86fb9aCee50CdC993",
    "https://example.org"
  ],
  "solcInputHash": "0f4fe0f002ddb440f586d0e7b02c5061",
  "bytecode": "0x60806040523480156200001157600080fd5b506040516200333f3803806200333f833981016040819052620000349162000438565b828282620000423362000176565b6200005d6000805160206200331f83398151915283620001c6565b62000087600080516020620032ff8339815191526000805160206200331f8339815191526200024f565b82516200009c9060059060208601906200029c565b5060005b8351811015620000fc57620000e7600080516020620032ff833981519152858381518110620000d357620000d362000540565b6020026020010151620001c660201b60201c565b80620000f38162000556565b915050620000a0565b506000816040516200010e9062000306565b6200011a919062000580565b604051809103906000f08015801562000137573d6000803e3d6000fd5b50600280546001600160a01b039283166001600160a01b031991821617909155600880549a90921699169890981790975550620005b595505050505050565b600080546001600160a01b038381166001600160a01b0319831681178455604051919092169283917f8be0079c531659141344cd1fd0a4f28419497f9722a3daafe3b4186f6b6457e09190a35050565b60008281526001602090815260408083206001600160a01b038516845290915290205460ff166200024b5760008281526001602081815260408084206001600160a01b0386168086529252808420805460ff19169093179092559051339285917f2f8788117e7eff1d82e926ec794901d17c78024a50270940304540a733656f0d9190a45b5050565b6000828152600160208190526040808320909101805490849055905190918391839186917fbd79b86ffe0ab8e8776151514217cd7cacd52c909f66475c3af44e129f0b00ff9190a4505050565b828054828255906000526020600020908101928215620002f4579160200282015b82811115620002f457825182546001600160a01b0319166001600160a01b03909116178255602090920191600190910190620002bd565b506200030292915062000314565b5090565b6115da8062001d2583390190565b5b8082111562000302576000815560010162000315565b80516001600160a01b03811681146200034357600080fd5b919050565b634e487b7160e01b600052604160045260246000fd5b604051601f8201601f191681016001600160401b038111828210171562000389576200038962000348565b604052919050565b60005b83811015620003ae57818101518382015260200162000394565b83811115620003be576000848401525b50505050565b600082601f830112620003d657600080fd5b81516001600160401b03811115620003f257620003f262000348565b62000407601f8201601f19166020016200035e565b8181528460208386010111156200041d57600080fd5b6200043082602083016020870162000391565b949350505050565b600080600080608085870312156200044f57600080fd5b6200045a856200032b565b602086810151919550906001600160401b03808211156200047a57600080fd5b818801915088601f8301126200048f57600080fd5b815181811115620004a457620004a462000348565b8060051b620004b58582016200035e565b918252838101850191858101908c841115620004d057600080fd5b948601945b83861015620004f957620004e9866200032b565b82529486019490860190620004d5565b98506200050d92505050604089016200032b565b945060608801519250808311156200052457600080fd5b50506200053487828801620003c4565b91505092959194509250565b634e487b7160e01b600052603260045260246000fd5b60006000198214156200057957634e487b7160e01b600052601160045260246000fd5b5060010190565b6020815260008251806020840152620005a181604085016020870162000391565b601f01601f19169190910160400192915050565b61176080620005c56000396000f3fe608060405234801561001057600080fd5b50600436106101375760003560e01c80638da5cb5b116100b8578063b26bc4831161007c578063b26bc483146102a5578063bf4ad4e7146102b8578063d547741f146102cb578063d9605867146102de578063e8fc9273146102ef578063f2fde38b1461030257600080fd5b80638da5cb5b1461023f5780639000b3d61461026457806391d1485414610277578063a217fddf1461028a578063ab0da5a91461029257600080fd5b80632f2ff15d116100ff5780632f2ff15d146101e057806336568abe146101f5578063715018a61461020857806375e8ba961461021057806383e9c77d1461023757600080fd5b806301ffc9a71461013c578063055b33e71461016457806308c84e701461018457806316878b07146101a7578063248a9ca3146101bc575b600080fd5b61014f61014a36600461119c565b610315565b60405190151581526020015b60405180910390f35b6101776101723660046111e2565b61034c565b60405161015b9190611259565b61019960008051602061170b83398151915281565b60405190815260200161015b565b6101af610482565b60405161015b919061126c565b6101996101ca3660046112b9565b6000908152600160208190526040909120015490565b6101f36101ee3660046112d2565b6105ac565b005b6101f36102033660046112d2565b6105d7565b6101f3610655565b6101997f20a28a5acab7d12bd3833ab5b8de9ae1a7d89d10c2ccf85b8104a2e68291c2e781565b6101996106bb565b6000546001600160a01b03165b6040516001600160a01b03909116815260200161015b565b6101f36102723660046111e2565b610717565b61014f6102853660046112d2565b6107a4565b610199600081565b6101f36102a03660046111e2565b6107cf565b60035461024c906001600160a01b031681565b6101f36102c6366004611465565b610867565b6101f36102d93660046112d2565b610929565b6008546001600160a01b031661024c565b6101f36102fd366004611524565b61094f565b6101f36103103660046111e2565b610a62565b60006001600160e01b03198216637965db0b60e01b148061034657506301ffc9a760e01b6001600160e01b03198316145b92915050565b606060008051602061170b83398151915261036681610b2d565b6001600160a01b03831660009081526007602090815260408083203384529091528120805461039490611567565b80601f01602080910402602001604051908101604052809291908181526020018280546103c090611567565b801561040d5780601f106103e25761010080835404028352916020019161040d565b820191906000526020600020905b8154815290600101906020018083116103f057829003601f168201915b5050505050905060008151116104795760405162461bcd60e51b815260206004820152602660248201527f4e6f2063696420666f722074686973207375626d697474657220616e642076656044820152653934b334b2b960d11b60648201526084015b60405180910390fd5b91505b50919050565b6060600061048e6106bb565b90506000816001600160401b038111156104aa576104aa6112fe565b6040519080825280602002602001820160405280156104d3578160200160208202803683370190505b5090506000805b6005548110156105a35761052360008051602061170b833981519152600583815481106105095761050961159c565b6000918252602090912001546001600160a01b03166107a4565b15610591576005818154811061053b5761053b61159c565b9060005260206000200160009054906101000a90046001600160a01b031683838151811061056b5761056b61159c565b6001600160a01b03909216602092830291909101909101528161058d816115c8565b9250505b8061059b816115c8565b9150506104da565b50909392505050565b600082815260016020819052604090912001546105c881610b2d565b6105d28383610b37565b505050565b6001600160a01b03811633146106475760405162461bcd60e51b815260206004820152602f60248201527f416363657373436f6e74726f6c3a2063616e206f6e6c792072656e6f756e636560448201526e103937b632b9903337b91039b2b63360891b6064820152608401610470565b6106518282610ba2565b5050565b6000546001600160a01b031633146106af5760405162461bcd60e51b815260206004820181905260248201527f4f776e61626c653a2063616c6c6572206973206e6f7420746865206f776e65726044820152606401610470565b6106b96000610c09565b565b6000805b600554811015610713576106ee60008051602061170b833981519152600583815481106105095761050961159c565b1561070157816106fd816115c8565b9250505b8061070b816115c8565b9150506106bf565b5090565b7f20a28a5acab7d12bd3833ab5b8de9ae1a7d89d10c2ccf85b8104a2e68291c2e761074181610b2d565b600580546001810182556000919091527f036b6384b5eca791c62761152d0c79bb0604c104a5fb6f4eb0703f3154bb3db00180546001600160a01b0319166001600160a01b03841617905561065160008051602061170b83398151915283610b37565b60009182526001602090815260408084206001600160a01b0393909316845291905290205460ff1690565b60008051602061170b8339815191526107e781610b2d565b60006107f283610c59565b8054600260ff1990911617808255604080516001600160a01b0387168152600160481b9092046001600160401b0316602083015242908201523360608201529091507f70782335feec916916a5935a1c478d1a51cfee98e026b838e7cd36490525e752906080015b60405180910390a1505050565b60085460405163c3c5a54760e01b81523360048201526001600160a01b039091169063c3c5a54790602401602060405180830381865afa1580156108af573d6000803e3d6000fd5b505050506040513d601f19601f820116820180604052508101906108d391906115f9565b61091f5760405162461bcd60e51b815260206004820152601f60248201527f43616c6c6572206973206e6f74207265676973746572656420696e20506f48006044820152606401610470565b6106518282610cf5565b6000828152600160208190526040909120015461094581610b2d565b6105d28383610ba2565b60008051602061170b83398151915261096781610b2d565b600061097284610c59565b80546001600160401b0342166101000268ffffffffffffffffff1990911617600317815560025460405163d0def52160e01b81529192506001600160a01b03169063d0def521906109c9908790879060040161161b565b600060405180830381600087803b1580156109e357600080fd5b505af11580156109f7573d6000803e3d6000fd5b50508254604080516001600160a01b0389168152600160481b9092046001600160401b0316602083015242908201523360608201527fe8e69e4ec4f93ed20a03e27d28609e734c3ee398d2b792f434655d7b1992a8239250608001905060405180910390a150505050565b6000546001600160a01b03163314610abc5760405162461bcd60e51b815260206004820181905260248201527f4f776e61626c653a2063616c6c6572206973206e6f7420746865206f776e65726044820152606401610470565b6001600160a01b038116610b215760405162461bcd60e51b815260206004820152602660248201527f4f776e61626c653a206e6577206f776e657220697320746865207a65726f206160448201526564647265737360d01b6064820152608401610470565b610b2a81610c09565b50565b610b2a8133610f06565b610b4182826107a4565b6106515760008281526001602081815260408084206001600160a01b0386168086529252808420805460ff19169093179092559051339285917f2f8788117e7eff1d82e926ec794901d17c78024a50270940304540a733656f0d9190a45050565b610bac82826107a4565b156106515760008281526001602090815260408083206001600160a01b0385168085529252808320805460ff1916905551339285917ff6391f5c32d9c69d2a47ea670b442974b53935d1edc7fd64eb21e047a839171b9190a45050565b600080546001600160a01b038381166001600160a01b0319831681178455604051919092169283917f8be0079c531659141344cd1fd0a4f28419497f9722a3daafe3b4186f6b6457e09190a35050565b6001600160a01b03811660009081526006602052604081206001815460ff166003811115610c8957610c896115e3565b146103465760405162461bcd60e51b815260206004820152603660248201527f5375626d697373696f6e20686173206265656e20616c7265616479207265736f6044820152751b1d9959081bdc88191bd95cc81b9bdd08195e1a5cdd60521b6064820152608401610470565b8051825114610d545760405162461bcd60e51b815260206004820152602560248201527f4e6f742073616d6520616d6f756e74206f662076657269666965727320616e64604482015264206369647360d81b6064820152608401610470565b60005b8251811015610dfe576000838281518110610d7457610d7461159c565b60200260200101519050610d9660008051602061170b833981519152826107a4565b15610deb57828281518110610dad57610dad61159c565b6020908102919091018101513360009081526007835260408082206001600160a01b0386168352845290208151610de99391929091019061110c565b505b5080610df6816115c8565b915050610d57565b50610e0d600480546001019055565b6000610e1860045490565b60408051606081019091529091508060018152600060208083018290526001600160401b038516604093840152338252600690522081518154829060ff19166001836003811115610e6b57610e6b6115e3565b0217905550602082810151825460409485015170ffffffffffffffffffffffffffffffff00199091166101006001600160401b039384160270ffffffffffffffff000000000000000000191617600160481b918316919091021790925582513381529184169082015242918101919091527f0f03a5e77b9fb67afcf2ad3d8b303c5907ed267be1c41d86657a006dddc0f2c39060600161085a565b610f1082826107a4565b61065157610f28816001600160a01b03166014610f6a565b610f33836020610f6a565b604051602001610f44929190611647565b60408051601f198184030181529082905262461bcd60e51b825261047091600401611259565b60606000610f798360026116bc565b610f849060026116db565b6001600160401b03811115610f9b57610f9b6112fe565b6040519080825280601f01601f191660200182016040528015610fc5576020820181803683370190505b509050600360fc1b81600081518110610fe057610fe061159c565b60200101906001600160f81b031916908160001a905350600f60fb1b8160018151811061100f5761100f61159c565b60200101906001600160f81b031916908160001a90535060006110338460026116bc565b61103e9060016116db565b90505b60018111156110b6576f181899199a1a9b1b9c1cb0b131b232b360811b85600f16601081106110725761107261159c565b1a60f81b8282815181106110885761108861159c565b60200101906001600160f81b031916908160001a90535060049490941c936110af816116f3565b9050611041565b5083156111055760405162461bcd60e51b815260206004820181905260248201527f537472696e67733a20686578206c656e67746820696e73756666696369656e746044820152606401610470565b9392505050565b82805461111890611567565b90600052602060002090601f01602090048101928261113a5760008555611180565b82601f1061115357805160ff1916838001178555611180565b82800160010185558215611180579182015b82811115611180578251825591602001919060010190611165565b506107139291505b808211156107135760008155600101611188565b6000602082840312156111ae57600080fd5b81356001600160e01b03198116811461110557600080fd5b80356001600160a01b03811681146111dd57600080fd5b919050565b6000602082840312156111f457600080fd5b611105826111c6565b60005b83811015611218578181015183820152602001611200565b83811115611227576000848401525b50505050565b600081518084526112458160208601602086016111fd565b601f01601f19169290920160200192915050565b602081526000611105602083018461122d565b6020808252825182820181905260009190848201906040850190845b818110156112ad5783516001600160a01b031683529284019291840191600101611288565b50909695505050505050565b6000602082840312156112cb57600080fd5b5035919050565b600080604083850312156112e557600080fd5b823591506112f5602084016111c6565b90509250929050565b634e487b7160e01b600052604160045260246000fd5b604051601f8201601f191681016001600160401b038111828210171561133c5761133c6112fe565b604052919050565b60006001600160401b0382111561135d5761135d6112fe565b5060051b60200190565b600082601f83011261137857600080fd5b81356001600160401b03811115611391576113916112fe565b6113a4601f8201601f1916602001611314565b8181528460208386010111156113b957600080fd5b816020850160208301376000918101602001919091529392505050565b600082601f8301126113e757600080fd5b813560206113fc6113f783611344565b611314565b82815260059290921b8401810191818101908684111561141b57600080fd5b8286015b8481101561145a5780356001600160401b0381111561143e5760008081fd5b61144c8986838b0101611367565b84525091830191830161141f565b509695505050505050565b6000806040838503121561147857600080fd5b82356001600160401b038082111561148f57600080fd5b818501915085601f8301126114a357600080fd5b813560206114b36113f783611344565b82815260059290921b840181019181810190898411156114d257600080fd5b948201945b838610156114f7576114e8866111c6565b825294820194908201906114d7565b9650508601359250508082111561150d57600080fd5b5061151a858286016113d6565b9150509250929050565b6000806040838503121561153757600080fd5b611540836111c6565b915060208301356001600160401b0381111561155b57600080fd5b61151a85828601611367565b600181811c9082168061157b57607f821691505b6020821081141561047c57634e487b7160e01b600052602260045260246000fd5b634e487b7160e01b600052603260045260246000fd5b634e487b7160e01b600052601160045260246000fd5b60006000198214156115dc576115dc6115b2565b5060010190565b634e487b7160e01b600052602160045260246000fd5b60006020828403121561160b57600080fd5b8151801515811461110557600080fd5b6001600160a01b038316815260406020820181905260009061163f9083018461122d565b949350505050565b7f416363657373436f6e74726f6c3a206163636f756e742000000000000000000081526000835161167f8160178501602088016111fd565b7001034b99036b4b9b9b4b733903937b6329607d1b60179184019182015283516116b08160288401602088016111fd565b01602801949350505050565b60008160001904831182151516156116d6576116d66115b2565b500290565b600082198211156116ee576116ee6115b2565b500190565b600081611702576117026115b2565b50600019019056fea48c898f5241be426b79d4b5a3c206f9c9a06576e1b72c338c3ec849771d5686a2646970667358221220f98993eb8cda5a996f09332dd301bd8f96d27f74dd4ad146734f8aca06b0377064736f6c634300080a003360806040523480156200001157600080fd5b50604051620015da380380620015da8339810160408190526200003491620001f8565b604080518082018252600b81526a283937b7b3102a37b5b2b760a91b602080830191825283518085019094526005845264282927a7a360d91b90840152815191929162000084916000916200013c565b5080516200009a9060019060208401906200013c565b505050620000b7620000b1620000e660201b60201c565b620000ea565b600780546001600160a01b031916331790558051620000de90600a9060208401906200013c565b505062000311565b3390565b600680546001600160a01b038381166001600160a01b0319831681179093556040519116919082907f8be0079c531659141344cd1fd0a4f28419497f9722a3daafe3b4186f6b6457e090600090a35050565b8280546200014a90620002d4565b90600052602060002090601f0160209004810192826200016e5760008555620001b9565b82601f106200018957805160ff1916838001178555620001b9565b82800160010185558215620001b9579182015b82811115620001b95782518255916020019190600101906200019c565b50620001c7929150620001cb565b5090565b5b80821115620001c75760008155600101620001cc565b634e487b7160e01b600052604160045260246000fd5b600060208083850312156200020c57600080fd5b82516001600160401b03808211156200022457600080fd5b818501915085601f8301126200023957600080fd5b8151818111156200024e576200024e620001e2565b604051601f8201601f19908116603f01168101908382118183101715620002795762000279620001e2565b8160405282815288868487010111156200029257600080fd5b600093505b82841015620002b6578484018601518185018701529285019262000297565b82841115620002c85760008684830101525b98975050505050505050565b600181811c90821680620002e957607f821691505b602082108114156200030b57634e487b7160e01b600052602260045260246000fd5b50919050565b6112b980620003216000396000f3fe608060405234801561001057600080fd5b506004361061012c5760003560e01c80638da5cb5b116100ad578063c87b56dd11610071578063c87b56dd14610265578063d0def52114610278578063d270e7ab1461028b578063e985e9c51461029e578063f2fde38b146102da57600080fd5b80638da5cb5b1461021857806395d89b41146102295780639ddaf5aa14610231578063a22cb46514610244578063b88d4fde1461025257600080fd5b806323b872dd116100f457806323b872dd146101c457806342842e0e146101d75780636352211e146101ea57806370a08231146101fd578063715018a61461021057600080fd5b806301ffc9a71461013157806306fdde0314610159578063081812fc1461016e578063095ea7b31461019957806318160ddd146101ae575b600080fd5b61014461013f366004610e12565b6102ed565b60405190151581526020015b60405180910390f35b61016161033f565b6040516101509190610e83565b61018161017c366004610e96565b6103d1565b6040516001600160a01b039091168152602001610150565b6101ac6101a7366004610ecb565b61046b565b005b6101b66104b3565b604051908152602001610150565b6101ac6101d2366004610ef5565b6104c3565b6101ac6101e5366004610ef5565b6104f9565b6101816101f8366004610e96565b610514565b6101b661020b366004610f31565b61058b565b6101ac610612565b6006546001600160a01b0316610181565b610161610678565b61016161023f366004610e96565b610687565b6101ac6101a7366004610f4c565b6101ac610260366004611014565b610721565b610161610273366004610e96565b610759565b6101ac610286366004611090565b6107ed565b600754610181906001600160a01b031681565b6101446102ac3660046110f2565b6001600160a01b03918216600090815260056020908152604080832093909416825291909152205460ff1690565b6101ac6102e8366004610f31565b61088b565b60006001600160e01b031982166380ac58cd60e01b148061031e57506001600160e01b03198216635b5e139f60e01b145b8061033957506301ffc9a760e01b6001600160e01b03198316145b92915050565b60606000805461034e90611125565b80601f016020809104026020016040519081016040528092919081815260200182805461037a90611125565b80156103c75780601f1061039c576101008083540402835291602001916103c7565b820191906000526020600020905b8154815290600101906020018083116103aa57829003601f168201915b5050505050905090565b6000818152600260205260408120546001600160a01b031661044f5760405162461bcd60e51b815260206004820152602c60248201527f4552433732313a20617070726f76656420717565727920666f72206e6f6e657860448201526b34b9ba32b73a103a37b5b2b760a11b60648201526084015b60405180910390fd5b506000908152600460205260409020546001600160a01b031690565b60405162461bcd60e51b815260206004820152601f60248201527f5342543a20546f6b656e2063616e6e6f74206265207472616e736665726564006044820152606401610446565b60006104be60095490565b905090565b6104cd3382610956565b6104e95760405162461bcd60e51b815260040161044690611160565b6104f483838361046b565b505050565b6104f483838360405180602001604052806000815250610721565b6000818152600260205260408120546001600160a01b0316806103395760405162461bcd60e51b815260206004820152602960248201527f4552433732313a206f776e657220717565727920666f72206e6f6e657869737460448201526832b73a103a37b5b2b760b91b6064820152608401610446565b60006001600160a01b0382166105f65760405162461bcd60e51b815260206004820152602a60248201527f4552433732313a2062616c616e636520717565727920666f7220746865207a65604482015269726f206164647265737360b01b6064820152608401610446565b506001600160a01b031660009081526003602052604090205490565b6006546001600160a01b0316331461066c5760405162461bcd60e51b815260206004820181905260248201527f4f776e61626c653a2063616c6c6572206973206e6f7420746865206f776e65726044820152606401610446565b6106766000610a4d565b565b60606001805461034e90611125565b600860205260009081526040902080546106a090611125565b80601f01602080910402602001604051908101604052809291908181526020018280546106cc90611125565b80156107195780601f106106ee57610100808354040283529160200191610719565b820191906000526020600020905b8154815290600101906020018083116106fc57829003601f168201915b505050505081565b61072b3383610956565b6107475760405162461bcd60e51b815260040161044690611160565b61075384848484610a9f565b50505050565b6060600a805461076890611125565b80601f016020809104026020016040519081016040528092919081815260200182805461079490611125565b80156107e15780601f106107b6576101008083540402835291602001916107e1565b820191906000526020600020905b8154815290600101906020018083116107c457829003601f168201915b50505050509050919050565b6007546001600160a01b031633146108475760405162461bcd60e51b815260206004820152601b60248201527f43616c6c6572206973206e6f74206d61696e20636f6e747261637400000000006044820152606401610446565b610855600980546001019055565b600061086060095490565b905061086c8382610ad2565b6000818152600860209081526040909120835161075392850190610d63565b6006546001600160a01b031633146108e55760405162461bcd60e51b815260206004820181905260248201527f4f776e61626c653a2063616c6c6572206973206e6f7420746865206f776e65726044820152606401610446565b6001600160a01b03811661094a5760405162461bcd60e51b815260206004820152602660248201527f4f776e61626c653a206e6577206f776e657220697320746865207a65726f206160448201526564647265737360d01b6064820152608401610446565b61095381610a4d565b50565b6000818152600260205260408120546001600160a01b03166109cf5760405162461bcd60e51b815260206004820152602c60248201527f4552433732313a206f70657261746f7220717565727920666f72206e6f6e657860448201526b34b9ba32b73a103a37b5b2b760a11b6064820152608401610446565b60006109da83610514565b9050806001600160a01b0316846001600160a01b03161480610a2157506001600160a01b0380821660009081526005602090815260408083209388168352929052205460ff165b80610a455750836001600160a01b0316610a3a846103d1565b6001600160a01b0316145b949350505050565b600680546001600160a01b038381166001600160a01b0319831681179093556040519116919082907f8be0079c531659141344cd1fd0a4f28419497f9722a3daafe3b4186f6b6457e090600090a35050565b610aaa84848461046b565b610ab684848484610af0565b6107535760405162461bcd60e51b8152600401610446906111b1565b610aec828260405180602001604052806000815250610bee565b5050565b60006001600160a01b0384163b15610be357604051630a85bd0160e11b81526001600160a01b0385169063150b7a0290610b34903390899088908890600401611203565b6020604051808303816000875af1925050508015610b6f575060408051601f3d908101601f19168201909252610b6c91810190611240565b60015b610bc9573d808015610b9d576040519150601f19603f3d011682016040523d82523d6000602084013e610ba2565b606091505b508051610bc15760405162461bcd60e51b8152600401610446906111b1565b805181602001fd5b6001600160e01b031916630a85bd0160e11b149050610a45565b506001949350505050565b610bf88383610c21565b610c056000848484610af0565b6104f45760405162461bcd60e51b8152600401610446906111b1565b6001600160a01b038216610c775760405162461bcd60e51b815260206004820181905260248201527f4552433732313a206d696e7420746f20746865207a65726f20616464726573736044820152606401610446565b6000818152600260205260409020546001600160a01b031615610cdc5760405162461bcd60e51b815260206004820152601c60248201527f4552433732313a20746f6b656e20616c7265616479206d696e746564000000006044820152606401610446565b6001600160a01b0382166000908152600360205260408120805460019290610d0590849061125d565b909155505060008181526002602052604080822080546001600160a01b0319166001600160a01b03861690811790915590518392907fddf252ad1be2c89b69c2b068fc378daa952ba7f163c4a11628f55a4df523b3ef908290a45050565b828054610d6f90611125565b90600052602060002090601f016020900481019282610d915760008555610dd7565b82601f10610daa57805160ff1916838001178555610dd7565b82800160010185558215610dd7579182015b82811115610dd7578251825591602001919060010190610dbc565b50610de3929150610de7565b5090565b5b80821115610de35760008155600101610de8565b6001600160e01b03198116811461095357600080fd5b600060208284031215610e2457600080fd5b8135610e2f81610dfc565b9392505050565b6000815180845260005b81811015610e5c57602081850181015186830182015201610e40565b81811115610e6e576000602083870101525b50601f01601f19169290920160200192915050565b602081526000610e2f6020830184610e36565b600060208284031215610ea857600080fd5b5035919050565b80356001600160a01b0381168114610ec657600080fd5b919050565b60008060408385031215610ede57600080fd5b610ee783610eaf565b946020939093013593505050565b600080600060608486031215610f0a57600080fd5b610f1384610eaf565b9250610f2160208501610eaf565b9150604084013590509250925092565b600060208284031215610f4357600080fd5b610e2f82610eaf565b60008060408385031215610f5f57600080fd5b610f6883610eaf565b915060208301358015158114610f7d57600080fd5b809150509250929050565b634e487b7160e01b600052604160045260246000fd5b600067ffffffffffffffff80841115610fb957610fb9610f88565b604051601f8501601f19908116603f01168101908282118183101715610fe157610fe1610f88565b81604052809350858152868686011115610ffa57600080fd5b858560208301376000602087830101525050509392505050565b6000806000806080858703121561102a57600080fd5b61103385610eaf565b935061104160208601610eaf565b925060408501359150606085013567ffffffffffffffff81111561106457600080fd5b8501601f8101871361107557600080fd5b61108487823560208401610f9e565b91505092959194509250565b600080604083850312156110a357600080fd5b6110ac83610eaf565b9150602083013567ffffffffffffffff8111156110c857600080fd5b8301601f810185136110d957600080fd5b6110e885823560208401610f9e565b9150509250929050565b6000806040838503121561110557600080fd5b61110e83610eaf565b915061111c60208401610eaf565b90509250929050565b600181811c9082168061113957607f821691505b6020821081141561115a57634e487b7160e01b600052602260045260246000fd5b50919050565b60208082526031908201527f4552433732313a207472616e736665722063616c6c6572206973206e6f74206f6040820152701ddb995c881b9bdc88185c1c1c9bdd9959607a1b606082015260800190565b60208082526032908201527f4552433732313a207472616e7366657220746f206e6f6e20455243373231526560408201527131b2b4bb32b91034b6b83632b6b2b73a32b960711b606082015260800190565b6001600160a01b038581168252841660208201526040810183905260806060820181905260009061123690830184610e36565b9695505050505050565b60006020828403121561125257600080fd5b8151610e2f81610dfc565b6000821982111561127e57634e487b7160e01b600052601160045260246000fd5b50019056fea2646970667358221220b9877e502e41c4f3b768ad0617576956ad7e6c21ce1ae9e420fcdb514e10d58664736f6c634300080a0033a48c898f5241be426b79d4b5a3c206f9c9a06576e1b72c338c3ec849771d568620a28a5acab7d12bd3833ab5b8de9ae1a7d89d10c2ccf85b8104a2e68291c2e7",
  "devdoc": {
    "kind": "dev",
    "methods": {
      "getRoleAdmin(bytes32)": {
        "details": "Returns the admin role that controls `role`. See {grantRole} and {revokeRole}. To change a role's admin, use {_setRoleAdmin}."
      },
      "grantRole(bytes32,address)": {
        "details": "Grants `role` to `account`. If `account` had not been already granted `role`, emits a {RoleGranted} event. Requirements: - the caller must have ``role``'s admin role."
      },
      "hasRole(bytes32,address)": {
        "details": "Returns `true` if `account` has been granted `role`."
      },
      "owner()": {
        "details": "Returns the address of the current owner."
      },
      "renounceOwnership()": {
        "details": "Leaves the contract without owner. It will not be possible to call `onlyOwner` functions anymore. Can only be called by the current owner. NOTE: Renouncing ownership will leave the contract without an owner, thereby removing any functionality that is only available to the owner."
      },
      "renounceRole(bytes32,address)": {
        "details": "Revokes `role` from the calling account. Roles are often managed via {grantRole} and {revokeRole}: this function's purpose is to provide a mechanism for accounts to lose their privileges if they are compromised (such as when a trusted device is misplaced). If the calling account had been revoked `role`, emits a {RoleRevoked} event. Requirements: - the caller must be `account`."
      },
      "revokeRole(bytes32,address)": {
        "details": "Revokes `role` from `account`. If `account` had been granted `role`, emits a {RoleRevoked} event. Requirements: - the caller must have ``role``'s admin role."
      },
      "supportsInterface(bytes4)": {
        "details": "See {IERC165-supportsInterface}."
      },
      "transferOwnership(address)": {
        "details": "Transfers ownership of the contract to a new account (`newOwner`). Can only be called by the current owner."
      }
    },
    "version": 1
  },
  "userdoc": {
    "kind": "user",
    "methods": {},
    "version": 1
  },
  "storageLayout": {
    "storage": [
      {
        "astId": 400,
        "contract": "contracts/poh-verification/PoHVerification.sol:PoHVerification",
        "label": "_owner",
        "offset": 0,
        "slot": "0",
        "type": "t_address"
      },
      {
        "astId": 24,
        "contract": "contracts/poh-verification/PoHVerification.sol:PoHVerification",
        "label": "_roles",
        "offset": 0,
        "slot": "1",
        "type": "t_mapping(t_bytes32,t_struct(RoleData)19_storage)"
      },
      {
        "astId": 2194,
        "contract": "contracts/poh-verification/PoHVerification.sol:PoHVerification",
        "label": "_proofToken",
        "offset": 0,
        "slot": "2",
        "type": "t_contract(IProofToken)2657"
      },
      {
        "astId": 2196,
        "contract": "contracts/poh-verification/PoHVerification.sol:PoHVerification",
        "label": "groupManager",
        "offset": 0,
        "slot": "3",
        "type": "t_address"
      },
      {
        "astId": 2199,
        "contract": "contracts/poh-verification/PoHVerification.sol:PoHVerification",
        "label": "_submissionCounter",
        "offset": 0,
        "slot": "4",
        "type": "t_struct(Counter)1847_storage"
      },
      {
        "astId": 2202,
        "contract": "contracts/poh-verification/PoHVerification.sol:PoHVerification",
        "label": "_verifiers",
        "offset": 0,
        "slot": "5",
        "type": "t_array(t_address)dyn_storage"
      },
      {
        "astId": 2207,
        "contract": "contracts/poh-verification/PoHVerification.sol:PoHVerification",
        "label": "_submissions",
        "offset": 0,
        "slot": "6",
        "type": "t_mapping(t_address,t_struct(Submission)2173_storage)"
      },
      {
        "astId": 2213,
        "contract": "contracts/poh-verification/PoHVerification.sol:PoHVerification",
        "label": "_cids",
        "offset": 0,
        "slot": "7",
        "type": "t_mapping(t_address,t_mapping(t_address,t_string_storage))"
      },
      {
        "astId": 2854,
        "contract": "contracts/poh-verification/PoHVerification.sol:PoHVerification",
        "label": "_proofOfHumanity",
        "offset": 0,
        "slot": "8",
        "type": "t_contract(IProofOfHumanity)2845"
      }
    ],
    "types": {
      "t_address": {
        "encoding": "inplace",
        "label": "address",
        "numberOfBytes": "20"
      },
      "t_array(t_address)dyn_storage": {
        "base": "t_address",
        "encoding": "dynamic_array",
        "label": "address[]",
        "numberOfBytes": "32"
      },
      "t_bool": {
        "encoding": "inplace",
        "label": "bool",
        "numberOfBytes": "1"
      },
      "t_bytes32": {
        "encoding": "inplace",
        "label": "bytes32",
        "numberOfBytes": "32"
      },
      "t_contract(IProofOfHumanity)2845": {
        "encoding": "inplace",
        "label": "contract IProofOfHumanity",
        "numberOfBytes": "20"
      },
      "t_contract(IProofToken)2657": {
        "encoding": "inplace",
        "label": "contract IProofToken",
        "numberOfBytes": "20"
      },
      "t_enum(Status)2165": {
        "encoding": "inplace",
        "label": "enum Status",
        "numberOfBytes": "1"
      },
      "t_mapping(t_address,t_bool)": {
        "encoding": "mapping",
        "key": "t_address",
        "label": "mapping(address => bool)",
        "numberOfBytes": "32",
        "value": "t_bool"
      },
      "t_mapping(t_address,t_mapping(t_address,t_string_storage))": {
        "encoding": "mapping",
        "key": "t_address",
        "label": "mapping(address => mapping(address => string))",
        "numberOfBytes": "32",
        "value": "t_mapping(t_address,t_string_storage)"
      },
      "t_mapping(t_address,t_string_storage)": {
        "encoding": "mapping",
        "key": "t_address",
        "label": "mapping(address => string)",
        "numberOfBytes": "32",
        "value": "t_string_storage"
      },
      "t_mapping(t_address,t_struct(Submission)2173_storage)": {
        "encoding": "mapping",
        "key": "t_address",
        "label": "mapping(address => struct Submission)",
        "numberOfBytes": "32",
        "value": "t_struct(Submission)2173_storage"
      },
      "t_mapping(t_bytes32,t_struct(RoleData)19_storage)": {
        "encoding": "mapping",
        "key": "t_bytes32",
        "label": "mapping(bytes32 => struct AccessControl.RoleData)",
        "numberOfBytes": "32",
        "value": "t_struct(RoleData)19_storage"
      },
      "t_string_storage": {
        "encoding": "bytes",
        "label": "string",
        "numberOfBytes": "32"
      },
      "t_struct(Counter)1847_storage": {
        "encoding": "inplace",
        "label": "struct Counters.Counter",
        "members": [
          {
            "astId": 1846,
            "contract": "contracts/poh-verification/PoHVerification.sol:PoHVerification",
            "label": "_value",
            "offset": 0,
            "slot": "0",
            "type": "t_uint256"
          }
        ],
        "numberOfBytes": "32"
      },
      "t_struct(RoleData)19_storage": {
        "encoding": "inplace",
        "label": "struct AccessControl.RoleData",
        "members": [
          {
            "astId": 16,
            "contract": "contracts/poh-verification/PoHVerification.sol:PoHVerification",
            "label": "members",
            "offset": 0,
            "slot": "0",
            "type": "t_mapping(t_address,t_bool)"
          },
          {
            "astId": 18,
            "contract": "contracts/poh-verification/PoHVerification.sol:PoHVerification",
            "label": "adminRole",
            "offset": 0,
            "slot": "1",
            "type": "t_bytes32"
          }
        ],
        "numberOfBytes": "64"
      },
      "t_struct(Submission)2173_storage": {
        "encoding": "inplace",
        "label": "struct Submission",
        "members": [
          {
            "astId": 2168,
            "contract": "contracts/poh-verification/PoHVerification.sol:PoHVerification",
            "label": "status",
            "offset": 0,
            "slot": "0",
            "type": "t_enum(Status)2165"
          },
          {
            "astId": 2170,
            "contract": "contracts/poh-verification/PoHVerification.sol:PoHVerification",
            "label": "verificationDate",
            "offset": 1,
            "slot": "0",
            "type": "t_uint64"
          },
          {
            "astId": 2172,
            "contract": "contracts/poh-verification/PoHVerification.sol:PoHVerification",
            "label": "index",
            "offset": 9,
            "slot": "0",
            "type": "t_uint64"
          }
        ],
        "numberOfBytes": "32"
      },
      "t_uint256": {
        "encoding": "inplace",
        "label": "uint256",
        "numberOfBytes": "32"
      },
      "t_uint64": {
        "encoding": "inplace",
        "label": "uint64",
        "numberOfBytes": "8"
      }
    }
  }
}