{
  "address": "0x794834F944cCA5D91891e917C61E6000F685297E",
  "abi": [
    {
      "inputs": [
        {
          "internalType": "address[]",
          "name": "_initialApprovers",
          "type": "address[]"
        },
        {
          "internalType": "address",
          "name": "_admin",
          "type": "address"
        },
        {
          "internalType": "string",
          "name": "_tokenURI",
          "type": "string"
        }
      ],
      "stateMutability": "nonpayable",
      "type": "constructor"
    },
    {
      "anonymous": false,
      "inputs": [
        {
          "indexed": false,
          "internalType": "address",
          "name": "submitter",
          "type": "address"
        },
        {
          "indexed": false,
          "internalType": "uint256",
          "name": "index",
          "type": "uint256"
        },
        {
          "indexed": false,
          "internalType": "uint256",
          "name": "date",
          "type": "uint256"
        }
      ],
      "name": "AddSubmission",
      "type": "event"
    },
    {
      "anonymous": false,
      "inputs": [
        {
          "indexed": false,
          "internalType": "address",
          "name": "submitter",
          "type": "address"
        },
        {
          "indexed": false,
          "internalType": "uint256",
          "name": "index",
          "type": "uint256"
        },
        {
          "indexed": false,
          "internalType": "uint256",
          "name": "date",
          "type": "uint256"
        },
        {
          "indexed": false,
          "internalType": "address",
          "name": "approver",
          "type": "address"
        }
      ],
      "name": "Approved",
      "type": "event"
    },
    {
      "anonymous": false,
      "inputs": [
        {
          "indexed": true,
          "internalType": "address",
          "name": "previousOwner",
          "type": "address"
        },
        {
          "indexed": true,
          "internalType": "address",
          "name": "newOwner",
          "type": "address"
        }
      ],
      "name": "OwnershipTransferred",
      "type": "event"
    },
    {
      "anonymous": false,
      "inputs": [
        {
          "indexed": false,
          "internalType": "address",
          "name": "submitter",
          "type": "address"
        },
        {
          "indexed": false,
          "internalType": "uint256",
          "name": "index",
          "type": "uint256"
        },
        {
          "indexed": false,
          "internalType": "uint256",
          "name": "date",
          "type": "uint256"
        },
        {
          "indexed": false,
          "internalType": "address",
          "name": "approver",
          "type": "address"
        }
      ],
      "name": "Rejected",
      "type": "event"
    },
    {
      "anonymous": false,
      "inputs": [
        {
          "indexed": true,
          "internalType": "bytes32",
          "name": "role",
          "type": "bytes32"
        },
        {
          "indexed": true,
          "internalType": "bytes32",
          "name": "previousAdminRole",
          "type": "bytes32"
        },
        {
          "indexed": true,
          "internalType": "bytes32",
          "name": "newAdminRole",
          "type": "bytes32"
        }
      ],
      "name": "RoleAdminChanged",
      "type": "event"
    },
    {
      "anonymous": false,
      "inputs": [
        {
          "indexed": true,
          "internalType": "bytes32",
          "name": "role",
          "type": "bytes32"
        },
        {
          "indexed": true,
          "internalType": "address",
          "name": "account",
          "type": "address"
        },
        {
          "indexed": true,
          "internalType": "address",
          "name": "sender",
          "type": "address"
        }
      ],
      "name": "RoleGranted",
      "type": "event"
    },
    {
      "anonymous": false,
      "inputs": [
        {
          "indexed": true,
          "internalType": "bytes32",
          "name": "role",
          "type": "bytes32"
        },
        {
          "indexed": true,
          "internalType": "address",
          "name": "account",
          "type": "address"
        },
        {
          "indexed": true,
          "internalType": "address",
          "name": "sender",
          "type": "address"
        }
      ],
      "name": "RoleRevoked",
      "type": "event"
    },
    {
      "inputs": [],
      "name": "APPROVER",
      "outputs": [
        {
          "internalType": "bytes32",
          "name": "",
          "type": "bytes32"
        }
      ],
      "stateMutability": "view",
      "type": "function"
    },
    {
      "inputs": [],
      "name": "APPROVERS_ADMIN",
      "outputs": [
        {
          "internalType": "bytes32",
          "name": "",
          "type": "bytes32"
        }
      ],
      "stateMutability": "view",
      "type": "function"
    },
    {
      "inputs": [],
      "name": "DEFAULT_ADMIN_ROLE",
      "outputs": [
        {
          "internalType": "bytes32",
          "name": "",
          "type": "bytes32"
        }
      ],
      "stateMutability": "view",
      "type": "function"
    },
    {
      "inputs": [],
      "name": "activeVerifiers",
      "outputs": [
        {
          "internalType": "address[]",
          "name": "",
          "type": "address[]"
        }
      ],
      "stateMutability": "view",
      "type": "function"
    },
    {
      "inputs": [],
      "name": "activeVerifiersAmount",
      "outputs": [
        {
          "internalType": "uint256",
          "name": "amount",
          "type": "uint256"
        }
      ],
      "stateMutability": "view",
      "type": "function"
    },
    {
      "inputs": [
        {
          "internalType": "address",
          "name": "newApprover",
          "type": "address"
        }
      ],
      "name": "addApprover",
      "outputs": [],
      "stateMutability": "nonpayable",
      "type": "function"
    },
    {
      "inputs": [
        {
          "internalType": "address[]",
          "name": "approvers",
          "type": "address[]"
        },
        {
          "internalType": "string[]",
          "name": "cids",
          "type": "string[]"
        }
      ],
      "name": "addSubmission",
      "outputs": [],
      "stateMutability": "nonpayable",
      "type": "function"
    },
    {
      "inputs": [
        {
          "internalType": "address",
          "name": "submitter",
          "type": "address"
        },
        {
          "internalType": "string",
          "name": "proof",
          "type": "string"
        }
      ],
      "name": "approveAndBindProof",
      "outputs": [],
      "stateMutability": "nonpayable",
      "type": "function"
    },
    {
      "inputs": [
        {
          "internalType": "address",
          "name": "submitter",
          "type": "address"
        }
      ],
      "name": "getCID",
      "outputs": [
        {
          "internalType": "string",
          "name": "",
          "type": "string"
        }
      ],
      "stateMutability": "view",
      "type": "function"
    },
    {
      "inputs": [
        {
          "internalType": "bytes32",
          "name": "role",
          "type": "bytes32"
        }
      ],
      "name": "getRoleAdmin",
      "outputs": [
        {
          "internalType": "bytes32",
          "name": "",
          "type": "bytes32"
        }
      ],
      "stateMutability": "view",
      "type": "function"
    },
    {
      "inputs": [
        {
          "internalType": "bytes32",
          "name": "role",
          "type": "bytes32"
        },
        {
          "internalType": "address",
          "name": "account",
          "type": "address"
        }
      ],
      "name": "grantRole",
      "outputs": [],
      "stateMutability": "nonpayable",
      "type": "function"
    },
    {
      "inputs": [],
      "name": "groupManager",
      "outputs": [
        {
          "internalType": "address",
          "name": "",
          "type": "address"
        }
      ],
      "stateMutability": "view",
      "type": "function"
    },
    {
      "inputs": [
        {
          "internalType": "bytes32",
          "name": "role",
          "type": "bytes32"
        },
        {
          "internalType": "address",
          "name": "account",
          "type": "address"
        }
      ],
      "name": "hasRole",
      "outputs": [
        {
          "internalType": "bool",
          "name": "",
          "type": "bool"
        }
      ],
      "stateMutability": "view",
      "type": "function"
    },
    {
      "inputs": [],
      "name": "owner",
      "outputs": [
        {
          "internalType": "address",
          "name": "",
          "type": "address"
        }
      ],
      "stateMutability": "view",
      "type": "function"
    },
    {
      "inputs": [
        {
          "internalType": "address",
          "name": "submitter",
          "type": "address"
        }
      ],
      "name": "reject",
      "outputs": [],
      "stateMutability": "nonpayable",
      "type": "function"
    },
    {
      "inputs": [],
      "name": "renounceOwnership",
      "outputs": [],
      "stateMutability": "nonpayable",
      "type": "function"
    },
    {
      "inputs": [
        {
          "internalType": "bytes32",
          "name": "role",
          "type": "bytes32"
        },
        {
          "internalType": "address",
          "name": "account",
          "type": "address"
        }
      ],
      "name": "renounceRole",
      "outputs": [],
      "stateMutability": "nonpayable",
      "type": "function"
    },
    {
      "inputs": [
        {
          "internalType": "bytes32",
          "name": "role",
          "type": "bytes32"
        },
        {
          "internalType": "address",
          "name": "account",
          "type": "address"
        }
      ],
      "name": "revokeRole",
      "outputs": [],
      "stateMutability": "nonpayable",
      "type": "function"
    },
    {
      "inputs": [
        {
          "internalType": "bytes4",
          "name": "interfaceId",
          "type": "bytes4"
        }
      ],
      "name": "supportsInterface",
      "outputs": [
        {
          "internalType": "bool",
          "name": "",
          "type": "bool"
        }
      ],
      "stateMutability": "view",
      "type": "function"
    },
    {
      "inputs": [
        {
          "internalType": "address",
          "name": "newOwner",
          "type": "address"
        }
      ],
      "name": "transferOwnership",
      "outputs": [],
      "stateMutability": "nonpayable",
      "type": "function"
    }
  ],
  "transactionHash": "0x4cf9446b1cf10dd1a1a7a49dab647d3213cdbac7dc062a9f37f47d8702eb6d6a",
  "args": [
    [
      "0x2e1FC47eabf36FB5Ef3BF5d86fb9aCee50CdC993",
      "0xec0dC8005b21e37B1cBBE200A96BCC29bA29606C",
      "0xD2Db71E27cbA2DBC8b7F8C1583a689Edb7c067F3"
    ],
    "0x2e1FC47eabf36FB5Ef3BF5d86fb9aCee50CdC993",
    "https://example.org"
  ],
  "solcInputHash": "8c2bf101e036ed5c12ac29da34aecc97",
  "bytecode": "0x60806040523480156200001157600080fd5b506040516200322438038062003224833981016040819052620000349162000428565b828282620000423362000166565b6200005d600080516020620031e483398151915283620001b6565b6200008760008051602062003204833981519152600080516020620031e48339815191526200023f565b82516200009c9060059060208601906200028c565b5060005b8351811015620000fc57620000e760008051602062003204833981519152858381518110620000d357620000d36200051b565b6020026020010151620001b660201b60201c565b80620000f38162000531565b915050620000a0565b506000816040516200010e90620002f6565b6200011a91906200055b565b604051809103906000f08015801562000137573d6000803e3d6000fd5b50600280546001600160a01b0319166001600160a01b0392909216919091179055506200059095505050505050565b600080546001600160a01b038381166001600160a01b0319831681178455604051919092169283917f8be0079c531659141344cd1fd0a4f28419497f9722a3daafe3b4186f6b6457e09190a35050565b60008281526001602090815260408083206001600160a01b038516845290915290205460ff166200023b5760008281526001602081815260408084206001600160a01b0386168086529252808420805460ff19169093179092559051339285917f2f8788117e7eff1d82e926ec794901d17c78024a50270940304540a733656f0d9190a45b5050565b6000828152600160208190526040808320909101805490849055905190918391839186917fbd79b86ffe0ab8e8776151514217cd7cacd52c909f66475c3af44e129f0b00ff9190a4505050565b828054828255906000526020600020908101928215620002e4579160200282015b82811115620002e457825182546001600160a01b0319166001600160a01b03909116178255602090920191600190910190620002ad565b50620002f292915062000304565b5090565b6115da8062001c0a83390190565b5b80821115620002f2576000815560010162000305565b634e487b7160e01b600052604160045260246000fd5b604051601f8201601f191681016001600160401b03811182821017156200035c576200035c6200031b565b604052919050565b80516001600160a01b03811681146200037c57600080fd5b919050565b60005b838110156200039e57818101518382015260200162000384565b83811115620003ae576000848401525b50505050565b600082601f830112620003c657600080fd5b81516001600160401b03811115620003e257620003e26200031b565b620003f7601f8201601f191660200162000331565b8181528460208386010111156200040d57600080fd5b6200042082602083016020870162000381565b949350505050565b6000806000606084860312156200043e57600080fd5b83516001600160401b03808211156200045657600080fd5b818601915086601f8301126200046b57600080fd5b81516020828211156200048257620004826200031b565b8160051b6200049382820162000331565b928352848101820192828101908b851115620004ae57600080fd5b958301955b84871015620004d757620004c78762000364565b82529583019590830190620004b3565b9850620004e991505088820162000364565b9550505060408601519150808211156200050257600080fd5b506200051186828701620003b4565b9150509250925092565b634e487b7160e01b600052603260045260246000fd5b60006000198214156200055457634e487b7160e01b600052601160045260246000fd5b5060010190565b60208152600082518060208401526200057c81604085016020870162000381565b601f01601f19169190910160400192915050565b61166a80620005a06000396000f3fe608060405234801561001057600080fd5b506004361061012c5760003560e01c80638da5cb5b116100ad578063b646c19411610071578063b646c19414610286578063bf4ad4e714610299578063c69f37bd146102ac578063d547741f146102d3578063f2fde38b146102e657600080fd5b80638da5cb5b1461022057806391d1485414610245578063a217fddf14610258578063ab0da5a914610260578063b26bc4831461027357600080fd5b806336568abe116100f457806336568abe146101d55780633d111c7e146101e857806366abfbab146101fd578063715018a61461021057806383e9c77d1461021857600080fd5b806301ffc9a714610131578063055b33e71461015957806316878b0714610179578063248a9ca31461018e5780632f2ff15d146101c0575b600080fd5b61014461013f3660046110c8565b6102f9565b60405190151581526020015b60405180910390f35b61016c61016736600461110e565b610330565b6040516101509190611185565b610181610466565b6040516101509190611198565b6101b261019c3660046111e5565b6000908152600160208190526040909120015490565b604051908152602001610150565b6101d36101ce3660046111fe565b610590565b005b6101d36101e33660046111fe565b6105bb565b6101b260008051602061161583398151915281565b6101d361020b3660046112df565b610639565b6101d361074c565b6101b26107b2565b6000546001600160a01b03165b6040516001600160a01b039091168152602001610150565b6101446102533660046111fe565b61080e565b6101b2600081565b6101d361026e36600461110e565b610839565b60035461022d906001600160a01b031681565b6101d361029436600461110e565b6108d1565b6101d36102a73660046113de565b61095e565b6101b27faf7ad41073b5b6e3811ac00f7c6d7688e6d136d40a08ea89cef956d4cb6c0e7481565b6101d36102e13660046111fe565b610968565b6101d36102f436600461110e565b61098e565b60006001600160e01b03198216637965db0b60e01b148061032a57506301ffc9a760e01b6001600160e01b03198316145b92915050565b606060008051602061161583398151915261034a81610a59565b6001600160a01b03831660009081526007602090815260408083203384529091528120805461037890611493565b80601f01602080910402602001604051908101604052809291908181526020018280546103a490611493565b80156103f15780601f106103c6576101008083540402835291602001916103f1565b820191906000526020600020905b8154815290600101906020018083116103d457829003601f168201915b50505050509050600081511161045d5760405162461bcd60e51b815260206004820152602660248201527f4e6f2063696420666f722074686973207375626d697474657220616e642076656044820152653934b334b2b960d11b60648201526084015b60405180910390fd5b91505b50919050565b606060006104726107b2565b90506000816001600160401b0381111561048e5761048e61122a565b6040519080825280602002602001820160405280156104b7578160200160208202803683370190505b5090506000805b60055481101561058757610507600080516020611615833981519152600583815481106104ed576104ed6114c8565b6000918252602090912001546001600160a01b031661080e565b15610575576005818154811061051f5761051f6114c8565b9060005260206000200160009054906101000a90046001600160a01b031683838151811061054f5761054f6114c8565b6001600160a01b039092166020928302919091019091015281610571816114f4565b9250505b8061057f816114f4565b9150506104be565b50909392505050565b600082815260016020819052604090912001546105ac81610a59565b6105b68383610a63565b505050565b6001600160a01b038116331461062b5760405162461bcd60e51b815260206004820152602f60248201527f416363657373436f6e74726f6c3a2063616e206f6e6c792072656e6f756e636560448201526e103937b632b9903337b91039b2b63360891b6064820152608401610454565b6106358282610ace565b5050565b60008051602061161583398151915261065181610a59565b600061065c84610b35565b80546001600160401b0342166101000268ffffffffffffffffff1990911617600317815560025460405163d0def52160e01b81529192506001600160a01b03169063d0def521906106b39087908790600401611525565b600060405180830381600087803b1580156106cd57600080fd5b505af11580156106e1573d6000803e3d6000fd5b50508254604080516001600160a01b0389168152600160481b9092046001600160401b0316602083015242908201523360608201527f1e8948542645f3b4e1c5890f186b425de0a748a1cefc29b7fd00ae58a25821e59250608001905060405180910390a150505050565b6000546001600160a01b031633146107a65760405162461bcd60e51b815260206004820181905260248201527f4f776e61626c653a2063616c6c6572206973206e6f7420746865206f776e65726044820152606401610454565b6107b06000610bd1565b565b6000805b60055481101561080a576107e5600080516020611615833981519152600583815481106104ed576104ed6114c8565b156107f857816107f4816114f4565b9250505b80610802816114f4565b9150506107b6565b5090565b60009182526001602090815260408084206001600160a01b0393909316845291905290205460ff1690565b60008051602061161583398151915261085181610a59565b600061085c83610b35565b8054600260ff1990911617808255604080516001600160a01b0387168152600160481b9092046001600160401b0316602083015242908201523360608201529091507f70782335feec916916a5935a1c478d1a51cfee98e026b838e7cd36490525e752906080015b60405180910390a1505050565b7faf7ad41073b5b6e3811ac00f7c6d7688e6d136d40a08ea89cef956d4cb6c0e746108fb81610a59565b600580546001810182556000919091527f036b6384b5eca791c62761152d0c79bb0604c104a5fb6f4eb0703f3154bb3db00180546001600160a01b0319166001600160a01b03841617905561063560008051602061161583398151915283610a63565b6106358282610c21565b6000828152600160208190526040909120015461098481610a59565b6105b68383610ace565b6000546001600160a01b031633146109e85760405162461bcd60e51b815260206004820181905260248201527f4f776e61626c653a2063616c6c6572206973206e6f7420746865206f776e65726044820152606401610454565b6001600160a01b038116610a4d5760405162461bcd60e51b815260206004820152602660248201527f4f776e61626c653a206e6577206f776e657220697320746865207a65726f206160448201526564647265737360d01b6064820152608401610454565b610a5681610bd1565b50565b610a568133610e32565b610a6d828261080e565b6106355760008281526001602081815260408084206001600160a01b0386168086529252808420805460ff19169093179092559051339285917f2f8788117e7eff1d82e926ec794901d17c78024a50270940304540a733656f0d9190a45050565b610ad8828261080e565b156106355760008281526001602090815260408083206001600160a01b0385168085529252808320805460ff1916905551339285917ff6391f5c32d9c69d2a47ea670b442974b53935d1edc7fd64eb21e047a839171b9190a45050565b6001600160a01b03811660009081526006602052604081206001815460ff166003811115610b6557610b6561150f565b1461032a5760405162461bcd60e51b815260206004820152603660248201527f5375626d697373696f6e20686173206265656e20616c7265616479207265736f6044820152751b1d9959081bdc88191bd95cc81b9bdd08195e1a5cdd60521b6064820152608401610454565b600080546001600160a01b038381166001600160a01b0319831681178455604051919092169283917f8be0079c531659141344cd1fd0a4f28419497f9722a3daafe3b4186f6b6457e09190a35050565b8051825114610c805760405162461bcd60e51b815260206004820152602560248201527f4e6f742073616d6520616d6f756e74206f6620617070726f7665727320616e64604482015264206369647360d81b6064820152608401610454565b60005b8251811015610d2a576000838281518110610ca057610ca06114c8565b60200260200101519050610cc26000805160206116158339815191528261080e565b15610d1757828281518110610cd957610cd96114c8565b6020908102919091018101513360009081526007835260408082206001600160a01b0386168352845290208151610d1593919290910190611038565b505b5080610d22816114f4565b915050610c83565b50610d39600480546001019055565b6000610d4460045490565b60408051606081019091529091508060018152600060208083018290526001600160401b038516604093840152338252600690522081518154829060ff19166001836003811115610d9757610d9761150f565b0217905550602082810151825460409485015170ffffffffffffffffffffffffffffffff00199091166101006001600160401b039384160270ffffffffffffffff000000000000000000191617600160481b918316919091021790925582513381529184169082015242918101919091527f0f03a5e77b9fb67afcf2ad3d8b303c5907ed267be1c41d86657a006dddc0f2c3906060016108c4565b610e3c828261080e565b61063557610e54816001600160a01b03166014610e96565b610e5f836020610e96565b604051602001610e70929190611551565b60408051601f198184030181529082905262461bcd60e51b825261045491600401611185565b60606000610ea58360026115c6565b610eb09060026115e5565b6001600160401b03811115610ec757610ec761122a565b6040519080825280601f01601f191660200182016040528015610ef1576020820181803683370190505b509050600360fc1b81600081518110610f0c57610f0c6114c8565b60200101906001600160f81b031916908160001a905350600f60fb1b81600181518110610f3b57610f3b6114c8565b60200101906001600160f81b031916908160001a9053506000610f5f8460026115c6565b610f6a9060016115e5565b90505b6001811115610fe2576f181899199a1a9b1b9c1cb0b131b232b360811b85600f1660108110610f9e57610f9e6114c8565b1a60f81b828281518110610fb457610fb46114c8565b60200101906001600160f81b031916908160001a90535060049490941c93610fdb816115fd565b9050610f6d565b5083156110315760405162461bcd60e51b815260206004820181905260248201527f537472696e67733a20686578206c656e67746820696e73756666696369656e746044820152606401610454565b9392505050565b82805461104490611493565b90600052602060002090601f01602090048101928261106657600085556110ac565b82601f1061107f57805160ff19168380011785556110ac565b828001600101855582156110ac579182015b828111156110ac578251825591602001919060010190611091565b5061080a9291505b8082111561080a57600081556001016110b4565b6000602082840312156110da57600080fd5b81356001600160e01b03198116811461103157600080fd5b80356001600160a01b038116811461110957600080fd5b919050565b60006020828403121561112057600080fd5b611031826110f2565b60005b8381101561114457818101518382015260200161112c565b83811115611153576000848401525b50505050565b60008151808452611171816020860160208601611129565b601f01601f19169290920160200192915050565b6020815260006110316020830184611159565b6020808252825182820181905260009190848201906040850190845b818110156111d95783516001600160a01b0316835292840192918401916001016111b4565b50909695505050505050565b6000602082840312156111f757600080fd5b5035919050565b6000806040838503121561121157600080fd5b82359150611221602084016110f2565b90509250929050565b634e487b7160e01b600052604160045260246000fd5b604051601f8201601f191681016001600160401b03811182821017156112685761126861122a565b604052919050565b600082601f83011261128157600080fd5b81356001600160401b0381111561129a5761129a61122a565b6112ad601f8201601f1916602001611240565b8181528460208386010111156112c257600080fd5b816020850160208301376000918101602001919091529392505050565b600080604083850312156112f257600080fd5b6112fb836110f2565b915060208301356001600160401b0381111561131657600080fd5b61132285828601611270565b9150509250929050565b60006001600160401b038211156113455761134561122a565b5060051b60200190565b600082601f83011261136057600080fd5b813560206113756113708361132c565b611240565b82815260059290921b8401810191818101908684111561139457600080fd5b8286015b848110156113d35780356001600160401b038111156113b75760008081fd5b6113c58986838b0101611270565b845250918301918301611398565b509695505050505050565b600080604083850312156113f157600080fd5b82356001600160401b038082111561140857600080fd5b818501915085601f83011261141c57600080fd5b8135602061142c6113708361132c565b82815260059290921b8401810191818101908984111561144b57600080fd5b948201945b8386101561147057611461866110f2565b82529482019490820190611450565b9650508601359250508082111561148657600080fd5b506113228582860161134f565b600181811c908216806114a757607f821691505b6020821081141561046057634e487b7160e01b600052602260045260246000fd5b634e487b7160e01b600052603260045260246000fd5b634e487b7160e01b600052601160045260246000fd5b6000600019821415611508576115086114de565b5060010190565b634e487b7160e01b600052602160045260246000fd5b6001600160a01b038316815260406020820181905260009061154990830184611159565b949350505050565b7f416363657373436f6e74726f6c3a206163636f756e7420000000000000000000815260008351611589816017850160208801611129565b7001034b99036b4b9b9b4b733903937b6329607d1b60179184019182015283516115ba816028840160208801611129565b01602801949350505050565b60008160001904831182151516156115e0576115e06114de565b500290565b600082198211156115f8576115f86114de565b500190565b60008161160c5761160c6114de565b50600019019056fe5ff1fb0ce9089603e6e193667ed17164e0360a6148f4a39fc194055588948a31a2646970667358221220fc85a9c86d6365dc0124aa1f4e549e2b3dfc2341e509b2fdd8700c1db21574d364736f6c634300080a003360806040523480156200001157600080fd5b50604051620015da380380620015da8339810160408190526200003491620001f8565b604080518082018252600b81526a283937b7b3102a37b5b2b760a91b602080830191825283518085019094526005845264282927a7a360d91b90840152815191929162000084916000916200013c565b5080516200009a9060019060208401906200013c565b505050620000b7620000b1620000e660201b60201c565b620000ea565b600780546001600160a01b031916331790558051620000de90600a9060208401906200013c565b505062000311565b3390565b600680546001600160a01b038381166001600160a01b0319831681179093556040519116919082907f8be0079c531659141344cd1fd0a4f28419497f9722a3daafe3b4186f6b6457e090600090a35050565b8280546200014a90620002d4565b90600052602060002090601f0160209004810192826200016e5760008555620001b9565b82601f106200018957805160ff1916838001178555620001b9565b82800160010185558215620001b9579182015b82811115620001b95782518255916020019190600101906200019c565b50620001c7929150620001cb565b5090565b5b80821115620001c75760008155600101620001cc565b634e487b7160e01b600052604160045260246000fd5b600060208083850312156200020c57600080fd5b82516001600160401b03808211156200022457600080fd5b818501915085601f8301126200023957600080fd5b8151818111156200024e576200024e620001e2565b604051601f8201601f19908116603f01168101908382118183101715620002795762000279620001e2565b8160405282815288868487010111156200029257600080fd5b600093505b82841015620002b6578484018601518185018701529285019262000297565b82841115620002c85760008684830101525b98975050505050505050565b600181811c90821680620002e957607f821691505b602082108114156200030b57634e487b7160e01b600052602260045260246000fd5b50919050565b6112b980620003216000396000f3fe608060405234801561001057600080fd5b506004361061012c5760003560e01c80638da5cb5b116100ad578063c87b56dd11610071578063c87b56dd14610265578063d0def52114610278578063d270e7ab1461028b578063e985e9c51461029e578063f2fde38b146102da57600080fd5b80638da5cb5b1461021857806395d89b41146102295780639ddaf5aa14610231578063a22cb46514610244578063b88d4fde1461025257600080fd5b806323b872dd116100f457806323b872dd146101c457806342842e0e146101d75780636352211e146101ea57806370a08231146101fd578063715018a61461021057600080fd5b806301ffc9a71461013157806306fdde0314610159578063081812fc1461016e578063095ea7b31461019957806318160ddd146101ae575b600080fd5b61014461013f366004610e12565b6102ed565b60405190151581526020015b60405180910390f35b61016161033f565b6040516101509190610e83565b61018161017c366004610e96565b6103d1565b6040516001600160a01b039091168152602001610150565b6101ac6101a7366004610ecb565b61046b565b005b6101b66104b3565b604051908152602001610150565b6101ac6101d2366004610ef5565b6104c3565b6101ac6101e5366004610ef5565b6104f9565b6101816101f8366004610e96565b610514565b6101b661020b366004610f31565b61058b565b6101ac610612565b6006546001600160a01b0316610181565b610161610678565b61016161023f366004610e96565b610687565b6101ac6101a7366004610f4c565b6101ac610260366004611014565b610721565b610161610273366004610e96565b610759565b6101ac610286366004611090565b6107ed565b600754610181906001600160a01b031681565b6101446102ac3660046110f2565b6001600160a01b03918216600090815260056020908152604080832093909416825291909152205460ff1690565b6101ac6102e8366004610f31565b61088b565b60006001600160e01b031982166380ac58cd60e01b148061031e57506001600160e01b03198216635b5e139f60e01b145b8061033957506301ffc9a760e01b6001600160e01b03198316145b92915050565b60606000805461034e90611125565b80601f016020809104026020016040519081016040528092919081815260200182805461037a90611125565b80156103c75780601f1061039c576101008083540402835291602001916103c7565b820191906000526020600020905b8154815290600101906020018083116103aa57829003601f168201915b5050505050905090565b6000818152600260205260408120546001600160a01b031661044f5760405162461bcd60e51b815260206004820152602c60248201527f4552433732313a20617070726f76656420717565727920666f72206e6f6e657860448201526b34b9ba32b73a103a37b5b2b760a11b60648201526084015b60405180910390fd5b506000908152600460205260409020546001600160a01b031690565b60405162461bcd60e51b815260206004820152601f60248201527f5342543a20546f6b656e2063616e6e6f74206265207472616e736665726564006044820152606401610446565b60006104be60095490565b905090565b6104cd3382610956565b6104e95760405162461bcd60e51b815260040161044690611160565b6104f483838361046b565b505050565b6104f483838360405180602001604052806000815250610721565b6000818152600260205260408120546001600160a01b0316806103395760405162461bcd60e51b815260206004820152602960248201527f4552433732313a206f776e657220717565727920666f72206e6f6e657869737460448201526832b73a103a37b5b2b760b91b6064820152608401610446565b60006001600160a01b0382166105f65760405162461bcd60e51b815260206004820152602a60248201527f4552433732313a2062616c616e636520717565727920666f7220746865207a65604482015269726f206164647265737360b01b6064820152608401610446565b506001600160a01b031660009081526003602052604090205490565b6006546001600160a01b0316331461066c5760405162461bcd60e51b815260206004820181905260248201527f4f776e61626c653a2063616c6c6572206973206e6f7420746865206f776e65726044820152606401610446565b6106766000610a4d565b565b60606001805461034e90611125565b600860205260009081526040902080546106a090611125565b80601f01602080910402602001604051908101604052809291908181526020018280546106cc90611125565b80156107195780601f106106ee57610100808354040283529160200191610719565b820191906000526020600020905b8154815290600101906020018083116106fc57829003601f168201915b505050505081565b61072b3383610956565b6107475760405162461bcd60e51b815260040161044690611160565b61075384848484610a9f565b50505050565b6060600a805461076890611125565b80601f016020809104026020016040519081016040528092919081815260200182805461079490611125565b80156107e15780601f106107b6576101008083540402835291602001916107e1565b820191906000526020600020905b8154815290600101906020018083116107c457829003601f168201915b50505050509050919050565b6007546001600160a01b031633146108475760405162461bcd60e51b815260206004820152601b60248201527f43616c6c6572206973206e6f74206d61696e20636f6e747261637400000000006044820152606401610446565b610855600980546001019055565b600061086060095490565b905061086c8382610ad2565b6000818152600860209081526040909120835161075392850190610d63565b6006546001600160a01b031633146108e55760405162461bcd60e51b815260206004820181905260248201527f4f776e61626c653a2063616c6c6572206973206e6f7420746865206f776e65726044820152606401610446565b6001600160a01b03811661094a5760405162461bcd60e51b815260206004820152602660248201527f4f776e61626c653a206e6577206f776e657220697320746865207a65726f206160448201526564647265737360d01b6064820152608401610446565b61095381610a4d565b50565b6000818152600260205260408120546001600160a01b03166109cf5760405162461bcd60e51b815260206004820152602c60248201527f4552433732313a206f70657261746f7220717565727920666f72206e6f6e657860448201526b34b9ba32b73a103a37b5b2b760a11b6064820152608401610446565b60006109da83610514565b9050806001600160a01b0316846001600160a01b03161480610a2157506001600160a01b0380821660009081526005602090815260408083209388168352929052205460ff165b80610a455750836001600160a01b0316610a3a846103d1565b6001600160a01b0316145b949350505050565b600680546001600160a01b038381166001600160a01b0319831681179093556040519116919082907f8be0079c531659141344cd1fd0a4f28419497f9722a3daafe3b4186f6b6457e090600090a35050565b610aaa84848461046b565b610ab684848484610af0565b6107535760405162461bcd60e51b8152600401610446906111b1565b610aec828260405180602001604052806000815250610bee565b5050565b60006001600160a01b0384163b15610be357604051630a85bd0160e11b81526001600160a01b0385169063150b7a0290610b34903390899088908890600401611203565b6020604051808303816000875af1925050508015610b6f575060408051601f3d908101601f19168201909252610b6c91810190611240565b60015b610bc9573d808015610b9d576040519150601f19603f3d011682016040523d82523d6000602084013e610ba2565b606091505b508051610bc15760405162461bcd60e51b8152600401610446906111b1565b805181602001fd5b6001600160e01b031916630a85bd0160e11b149050610a45565b506001949350505050565b610bf88383610c21565b610c056000848484610af0565b6104f45760405162461bcd60e51b8152600401610446906111b1565b6001600160a01b038216610c775760405162461bcd60e51b815260206004820181905260248201527f4552433732313a206d696e7420746f20746865207a65726f20616464726573736044820152606401610446565b6000818152600260205260409020546001600160a01b031615610cdc5760405162461bcd60e51b815260206004820152601c60248201527f4552433732313a20746f6b656e20616c7265616479206d696e746564000000006044820152606401610446565b6001600160a01b0382166000908152600360205260408120805460019290610d0590849061125d565b909155505060008181526002602052604080822080546001600160a01b0319166001600160a01b03861690811790915590518392907fddf252ad1be2c89b69c2b068fc378daa952ba7f163c4a11628f55a4df523b3ef908290a45050565b828054610d6f90611125565b90600052602060002090601f016020900481019282610d915760008555610dd7565b82601f10610daa57805160ff1916838001178555610dd7565b82800160010185558215610dd7579182015b82811115610dd7578251825591602001919060010190610dbc565b50610de3929150610de7565b5090565b5b80821115610de35760008155600101610de8565b6001600160e01b03198116811461095357600080fd5b600060208284031215610e2457600080fd5b8135610e2f81610dfc565b9392505050565b6000815180845260005b81811015610e5c57602081850181015186830182015201610e40565b81811115610e6e576000602083870101525b50601f01601f19169290920160200192915050565b602081526000610e2f6020830184610e36565b600060208284031215610ea857600080fd5b5035919050565b80356001600160a01b0381168114610ec657600080fd5b919050565b60008060408385031215610ede57600080fd5b610ee783610eaf565b946020939093013593505050565b600080600060608486031215610f0a57600080fd5b610f1384610eaf565b9250610f2160208501610eaf565b9150604084013590509250925092565b600060208284031215610f4357600080fd5b610e2f82610eaf565b60008060408385031215610f5f57600080fd5b610f6883610eaf565b915060208301358015158114610f7d57600080fd5b809150509250929050565b634e487b7160e01b600052604160045260246000fd5b600067ffffffffffffffff80841115610fb957610fb9610f88565b604051601f8501601f19908116603f01168101908282118183101715610fe157610fe1610f88565b81604052809350858152868686011115610ffa57600080fd5b858560208301376000602087830101525050509392505050565b6000806000806080858703121561102a57600080fd5b61103385610eaf565b935061104160208601610eaf565b925060408501359150606085013567ffffffffffffffff81111561106457600080fd5b8501601f8101871361107557600080fd5b61108487823560208401610f9e565b91505092959194509250565b600080604083850312156110a357600080fd5b6110ac83610eaf565b9150602083013567ffffffffffffffff8111156110c857600080fd5b8301601f810185136110d957600080fd5b6110e885823560208401610f9e565b9150509250929050565b6000806040838503121561110557600080fd5b61110e83610eaf565b915061111c60208401610eaf565b90509250929050565b600181811c9082168061113957607f821691505b6020821081141561115a57634e487b7160e01b600052602260045260246000fd5b50919050565b60208082526031908201527f4552433732313a207472616e736665722063616c6c6572206973206e6f74206f6040820152701ddb995c881b9bdc88185c1c1c9bdd9959607a1b606082015260800190565b60208082526032908201527f4552433732313a207472616e7366657220746f206e6f6e20455243373231526560408201527131b2b4bb32b91034b6b83632b6b2b73a32b960711b606082015260800190565b6001600160a01b038581168252841660208201526040810183905260806060820181905260009061123690830184610e36565b9695505050505050565b60006020828403121561125257600080fd5b8151610e2f81610dfc565b6000821982111561127e57634e487b7160e01b600052601160045260246000fd5b50019056fea2646970667358221220b9877e502e41c4f3b768ad0617576956ad7e6c21ce1ae9e420fcdb514e10d58664736f6c634300080a0033af7ad41073b5b6e3811ac00f7c6d7688e6d136d40a08ea89cef956d4cb6c0e745ff1fb0ce9089603e6e193667ed17164e0360a6148f4a39fc194055588948a31",
  "devdoc": {
    "kind": "dev",
    "methods": {
      "getRoleAdmin(bytes32)": {
        "details": "Returns the admin role that controls `role`. See {grantRole} and {revokeRole}. To change a role's admin, use {_setRoleAdmin}."
      },
      "grantRole(bytes32,address)": {
        "details": "Grants `role` to `account`. If `account` had not been already granted `role`, emits a {RoleGranted} event. Requirements: - the caller must have ``role``'s admin role."
      },
      "hasRole(bytes32,address)": {
        "details": "Returns `true` if `account` has been granted `role`."
      },
      "owner()": {
        "details": "Returns the address of the current owner."
      },
      "renounceOwnership()": {
        "details": "Leaves the contract without owner. It will not be possible to call `onlyOwner` functions anymore. Can only be called by the current owner. NOTE: Renouncing ownership will leave the contract without an owner, thereby removing any functionality that is only available to the owner."
      },
      "renounceRole(bytes32,address)": {
        "details": "Revokes `role` from the calling account. Roles are often managed via {grantRole} and {revokeRole}: this function's purpose is to provide a mechanism for accounts to lose their privileges if they are compromised (such as when a trusted device is misplaced). If the calling account had been revoked `role`, emits a {RoleRevoked} event. Requirements: - the caller must be `account`."
      },
      "revokeRole(bytes32,address)": {
        "details": "Revokes `role` from `account`. If `account` had been granted `role`, emits a {RoleRevoked} event. Requirements: - the caller must have ``role``'s admin role."
      },
      "supportsInterface(bytes4)": {
        "details": "See {IERC165-supportsInterface}."
      },
      "transferOwnership(address)": {
        "details": "Transfers ownership of the contract to a new account (`newOwner`). Can only be called by the current owner."
      }
    },
    "version": 1
  },
  "userdoc": {
    "kind": "user",
    "methods": {},
    "version": 1
  },
  "storageLayout": {
    "storage": [
      {
        "astId": 400,
        "contract": "contracts/KYCVerification.sol:KYCVerification",
        "label": "_owner",
        "offset": 0,
        "slot": "0",
        "type": "t_address"
      },
      {
        "astId": 24,
        "contract": "contracts/KYCVerification.sol:KYCVerification",
        "label": "_roles",
        "offset": 0,
        "slot": "1",
        "type": "t_mapping(t_bytes32,t_struct(RoleData)19_storage)"
      },
      {
        "astId": 2231,
        "contract": "contracts/KYCVerification.sol:KYCVerification",
        "label": "_proofToken",
        "offset": 0,
        "slot": "2",
        "type": "t_contract(IProofToken)2694"
      },
      {
        "astId": 2233,
        "contract": "contracts/KYCVerification.sol:KYCVerification",
        "label": "groupManager",
        "offset": 0,
        "slot": "3",
        "type": "t_address"
      },
      {
        "astId": 2236,
        "contract": "contracts/KYCVerification.sol:KYCVerification",
        "label": "_submissionCounter",
        "offset": 0,
        "slot": "4",
        "type": "t_struct(Counter)1847_storage"
      },
      {
        "astId": 2239,
        "contract": "contracts/KYCVerification.sol:KYCVerification",
        "label": "_approvers",
        "offset": 0,
        "slot": "5",
        "type": "t_array(t_address)dyn_storage"
      },
      {
        "astId": 2244,
        "contract": "contracts/KYCVerification.sol:KYCVerification",
        "label": "_submissions",
        "offset": 0,
        "slot": "6",
        "type": "t_mapping(t_address,t_struct(Submission)2210_storage)"
      },
      {
        "astId": 2250,
        "contract": "contracts/KYCVerification.sol:KYCVerification",
        "label": "_cids",
        "offset": 0,
        "slot": "7",
        "type": "t_mapping(t_address,t_mapping(t_address,t_string_storage))"
      }
    ],
    "types": {
      "t_address": {
        "encoding": "inplace",
        "label": "address",
        "numberOfBytes": "20"
      },
      "t_array(t_address)dyn_storage": {
        "base": "t_address",
        "encoding": "dynamic_array",
        "label": "address[]",
        "numberOfBytes": "32"
      },
      "t_bool": {
        "encoding": "inplace",
        "label": "bool",
        "numberOfBytes": "1"
      },
      "t_bytes32": {
        "encoding": "inplace",
        "label": "bytes32",
        "numberOfBytes": "32"
      },
      "t_contract(IProofToken)2694": {
        "encoding": "inplace",
        "label": "contract IProofToken",
        "numberOfBytes": "20"
      },
      "t_enum(Status)2202": {
        "encoding": "inplace",
        "label": "enum Status",
        "numberOfBytes": "1"
      },
      "t_mapping(t_address,t_bool)": {
        "encoding": "mapping",
        "key": "t_address",
        "label": "mapping(address => bool)",
        "numberOfBytes": "32",
        "value": "t_bool"
      },
      "t_mapping(t_address,t_mapping(t_address,t_string_storage))": {
        "encoding": "mapping",
        "key": "t_address",
        "label": "mapping(address => mapping(address => string))",
        "numberOfBytes": "32",
        "value": "t_mapping(t_address,t_string_storage)"
      },
      "t_mapping(t_address,t_string_storage)": {
        "encoding": "mapping",
        "key": "t_address",
        "label": "mapping(address => string)",
        "numberOfBytes": "32",
        "value": "t_string_storage"
      },
      "t_mapping(t_address,t_struct(Submission)2210_storage)": {
        "encoding": "mapping",
        "key": "t_address",
        "label": "mapping(address => struct Submission)",
        "numberOfBytes": "32",
        "value": "t_struct(Submission)2210_storage"
      },
      "t_mapping(t_bytes32,t_struct(RoleData)19_storage)": {
        "encoding": "mapping",
        "key": "t_bytes32",
        "label": "mapping(bytes32 => struct AccessControl.RoleData)",
        "numberOfBytes": "32",
        "value": "t_struct(RoleData)19_storage"
      },
      "t_string_storage": {
        "encoding": "bytes",
        "label": "string",
        "numberOfBytes": "32"
      },
      "t_struct(Counter)1847_storage": {
        "encoding": "inplace",
        "label": "struct Counters.Counter",
        "members": [
          {
            "astId": 1846,
            "contract": "contracts/KYCVerification.sol:KYCVerification",
            "label": "_value",
            "offset": 0,
            "slot": "0",
            "type": "t_uint256"
          }
        ],
        "numberOfBytes": "32"
      },
      "t_struct(RoleData)19_storage": {
        "encoding": "inplace",
        "label": "struct AccessControl.RoleData",
        "members": [
          {
            "astId": 16,
            "contract": "contracts/KYCVerification.sol:KYCVerification",
            "label": "members",
            "offset": 0,
            "slot": "0",
            "type": "t_mapping(t_address,t_bool)"
          },
          {
            "astId": 18,
            "contract": "contracts/KYCVerification.sol:KYCVerification",
            "label": "adminRole",
            "offset": 0,
            "slot": "1",
            "type": "t_bytes32"
          }
        ],
        "numberOfBytes": "64"
      },
      "t_struct(Submission)2210_storage": {
        "encoding": "inplace",
        "label": "struct Submission",
        "members": [
          {
            "astId": 2205,
            "contract": "contracts/KYCVerification.sol:KYCVerification",
            "label": "status",
            "offset": 0,
            "slot": "0",
            "type": "t_enum(Status)2202"
          },
          {
            "astId": 2207,
            "contract": "contracts/KYCVerification.sol:KYCVerification",
            "label": "verificationDate",
            "offset": 1,
            "slot": "0",
            "type": "t_uint64"
          },
          {
            "astId": 2209,
            "contract": "contracts/KYCVerification.sol:KYCVerification",
            "label": "index",
            "offset": 9,
            "slot": "0",
            "type": "t_uint64"
          }
        ],
        "numberOfBytes": "32"
      },
      "t_uint256": {
        "encoding": "inplace",
        "label": "uint256",
        "numberOfBytes": "32"
      },
      "t_uint64": {
        "encoding": "inplace",
        "label": "uint64",
        "numberOfBytes": "8"
      }
    }
  }
}