{
  "address": "0x4bf6ed3eE50a8dC875A8c65E504c8A0CbDF72623",
  "abi": [
    {
      "inputs": [
        {
          "internalType": "address",
          "name": "_worldId_",
          "type": "address"
        }
      ],
      "stateMutability": "nonpayable",
      "type": "constructor"
    },
    {
      "inputs": [],
      "name": "AlreadyAssociated",
      "type": "error"
    },
    {
      "inputs": [],
      "name": "InvalidNullifier",
      "type": "error"
    },
    {
      "inputs": [],
      "name": "Unauthorized",
      "type": "error"
    },
    {
      "inputs": [
        {
          "internalType": "address",
          "name": "owner",
          "type": "address"
        }
      ],
      "name": "isAddressAssociated",
      "outputs": [
        {
          "internalType": "bool",
          "name": "",
          "type": "bool"
        }
      ],
      "stateMutability": "view",
      "type": "function"
    }
  ],
  "transactionHash": "0x8063abf13536acc0a57be14a1e01235fb4eff8165ea84fa0b4250492ce3fa48e",
  "args": [
    "0xABB70f7F39035586Da57B3c8136035f87AC0d2Aa"
  ],
  "solcInputHash": "0f4fe0f002ddb440f586d0e7b02c5061",
  "bytecode": "0x60c0604052600160a05234801561001557600080fd5b5060405161015f38038061015f83398101604081905261003491610045565b6001600160a01b0316608052610075565b60006020828403121561005757600080fd5b81516001600160a01b038116811461006e57600080fd5b9392505050565b60805160a05160cd610092600039600050506000505060cd6000f3fe6080604052348015600f57600080fd5b506004361060285760003560e01c806308f8343a14602d575b600080fd5b605560383660046069565b6001600160a01b0316600090815260016020526040902054151590565b604051901515815260200160405180910390f35b600060208284031215607a57600080fd5b81356001600160a01b0381168114609057600080fd5b939250505056fea2646970667358221220b94ec66e67b29bd7b18c8fbec29724e34b93844023efe6a605fd6ad4316c217764736f6c634300080a0033",
  "devdoc": {
    "kind": "dev",
    "methods": {
      "constructor": {
        "details": "worldId is take from `https://developer.worldcoin.org/api/v1/contracts`",
        "params": {
          "_worldId_": "The WorldID instance that will manage groups and verify proofs"
        }
      }
    },
    "stateVariables": {
      "_addressToHash": {
        "details": "Reverse lookup of _hashToAddress"
      },
      "_groupId": {
        "details": "The ID of the Semaphore group \"World ID\" (always 1)"
      },
      "_hashToAddress": {
        "details": "Maps from nullitiferHash to address. Used to prevent double-signaling"
      },
      "_worldId": {
        "details": "The WorldID instance that will be used for managing groups and verifying proofs"
      }
    },
    "version": 1
  },
  "userdoc": {
    "errors": {
      "AlreadyAssociated()": [
        {
          "notice": "Thrown when attempting to associate an address again"
        }
      ],
      "InvalidNullifier()": [
        {
          "notice": "Thrown when attempting to reuse a nullifier"
        }
      ],
      "Unauthorized()": [
        {
          "notice": "Thrown when trying to update the airdrop amount without being the manager"
        }
      ]
    },
    "kind": "user",
    "methods": {
      "constructor": {
        "notice": "Deploys a WorldIDAirdrop instance"
      }
    },
    "version": 1
  },
  "storageLayout": {
    "storage": [
      {
        "astId": 2964,
        "contract": "contracts/worldid-verification/WorldIDRegistry.sol:WorldIDRegistry",
        "label": "_hashToAddress",
        "offset": 0,
        "slot": "0",
        "type": "t_mapping(t_uint256,t_address)"
      },
      {
        "astId": 2969,
        "contract": "contracts/worldid-verification/WorldIDRegistry.sol:WorldIDRegistry",
        "label": "_addressToHash",
        "offset": 0,
        "slot": "1",
        "type": "t_mapping(t_address,t_uint256)"
      }
    ],
    "types": {
      "t_address": {
        "encoding": "inplace",
        "label": "address",
        "numberOfBytes": "20"
      },
      "t_mapping(t_address,t_uint256)": {
        "encoding": "mapping",
        "key": "t_address",
        "label": "mapping(address => uint256)",
        "numberOfBytes": "32",
        "value": "t_uint256"
      },
      "t_mapping(t_uint256,t_address)": {
        "encoding": "mapping",
        "key": "t_uint256",
        "label": "mapping(uint256 => address)",
        "numberOfBytes": "32",
        "value": "t_address"
      },
      "t_uint256": {
        "encoding": "inplace",
        "label": "uint256",
        "numberOfBytes": "32"
      }
    }
  }
}